:020000040800F2
:10000000184900206D030008B74F0008714C000824
:10001000B54F0008BD130008F36B00080000000096
:10002000000000000000000000000000AD02000819
:10003000151700080000000009030008015200081D
:100040008703000887030008870300088703000868
:100050008703000887030008870300088703000858
:10006000870300088703000887030008C1130008FE
:10007000CD130008870300088703000887030008E2
:100080008703000887030008870300088703000828
:100090008703000887030008870300088703000818
:1000A0008703000887030008870300088703000808
:1000B00087030008870300088703000887030008F8
:1000C00087030008870300088703000887030008E8
:1000D000870300080D6900088703000819690008F4
:1000E000870300088703000800000000870300085A
:1000F00087030008870300088703000887030008B8
:1001000087030008870300088703000887030008A7
:100110008703000887030008870300088703000897
:100120008703000887030008870300088703000887
:100130008703000887030008870300088703000877
:1001400000000000000000000000000000000000AF
:100150008703000887030008870300088703000857
:100160008703000887030008870300088703000847
:1001700087030008870300088703000800000000C9
:100180008703000887030008870300088703000827
:100190008703000887030008870300088703000817
:1001A0008703000887030008870300088703000807
:1001B00087030008870300088703000887030008F7
:1001C00087030008870300088703000887030008E7
:1001D00087030008870300088703000887030008D7
:1001E00087030008870300088703000887030008C7
:1001F00087030008870300088703000887030008B7
:1002000087030008870300088703000887030008A6
:100210008703000885530008B153000887030008CE
:100220008703000887030008870300080000000018
:100230008703000887030008000000008703000808
:100240008703000887030008870300088703000866
:100250008703000887030008870300088703000856
:100260008703000887030008870300088703000846
:1002700087030008870300088703000800000000C8
:1002800087030008870300088703000800000000B8
:100290000000000087030008DFF80CD000F026FE05
:1002A0000048004725770008184900202C4B1968A2
:1002B0000868B0E8F04F80F30988BFF36F8F4FF004
:1002C000000080F3118870470000000008480068B3
:1002D000006880F308884FF0000080F3148862B64D
:1002E00061B6BFF34F8FBFF36F8F00DF00BF00BF5A
:1002F00008ED00E0DFF80C00016841F470010160D6
:10030000704700BF88ED00E0EFF30980BFF36F8F07
:10031000134B1A681EF0100F08BF20ED108A20E959
:10032000F04F106009B44FF0500080F31188BFF314
:100330004F8FBFF36F8F09F0DFFC4FF0000080F3A9
:10034000118809BC19680868B0E8F04F1EF0100F5A
:1003500008BFB0EC108A80F30988BFF36F8F704735
:1003600068000020EFF305807047000006488047D2
:1003700006480047FEE7FEE7FEE7FEE7FEE7FEE78A
:10038000FEE7FEE7FEE7FEE7E952000899020008F3
:100390002DE9F05F0546002092469B4688460646BA
:1003A000814640241BE0284641464746224600F04D
:1003B0006AFB53465A46C01A914110D3114618465B
:1003C000224600F051FB2D1A67EB01084F462246EA
:1003D0000120002100F048FB17EB00094E41201ED0
:1003E000A4F10104DFDC484631462A464346BDE815
:1003F000F09F40EA01039B0703D009E008C9121FE0
:1004000008C0042AFAD203E011F8013B00F8013BCE
:10041000521EF9D27047D2B201E000F8012B491EFA
:10042000FBD270470022F6E710B513460A46044691
:100430001946FFF7F0FF204610BD421C10F8011BC3
:100440000029FBD1801A704710B5002200E0521C31
:10045000835C8C5CA34201D1002BF8D1D8B2E1B20D
:10046000401A10BD034611F8012B00F8012B002A99
:10047000F9D11846704700000FB400B58DB010A92F
:1004800009900B9000914FF0FF300A9000200C90E3
:1004900005480690054807906A4609A80F9900F09C
:1004A00017FB0DB05DF814FBED0A00080B0B0008FC
:1004B0002DE9FF5F1D464FF0FF3BD5E90146914610
:1004C0005F464FF00008A9697F1C01988847296A98
:1004D000824688470028F6D1BAF1FF3F0CD024F4B9
:1004E000C064002E19DD600614D5BAF12B0F09D0B7
:1004F000BAF12D0F0ED103E0584604B0BDE8F09FCD
:1005000044F48064A9697F1C01988847761E82465E
:10051000002E02DDBAF1300F03D0B9F1000F26D062
:1005200032E0A969761E44F400747F1C0198884764
:100530008246002E05DDBAF1780F06D0BAF1580FC9
:1005400003D0B9F1000F10D01EE0B9F1000F02D0B6
:10055000B9F1100F18D1A969761E24F400747F1C1C
:10056000019888478246102002E0082000E00A2017
:10057000814609E008FB0908A969761E44F4007465
:100580007F1C019888478246002E05DD494650466B
:1005900000F089FA0028EDDAE96901988847A0059A
:1005A00002D46FF00100A8E7E00725D1600613D55B
:1005B000600502D5C8F1000000E0404629680A1D28
:1005C0002A600968220501D5087015E0220701D5C7
:1005D000088011E008600FE02868011D29600068AC
:1005E000210502D580F8008006E0210702D5A0F899
:1005F000008001E0C0F8008038467EE72DE9FF5F0B
:10060000D2E901A74FF00008916999461446DDF838
:1006100038B0464601988847054659EA0B0005D090
:1006200009E0A169761C019888470546216A284699
:1006300088470028F5D1681C03D05FEACA7005D04E
:1006400015E04FF0FF3004B0BDE8F09F2068011DB9
:100650002160D0F800800AE05FEACA7001D108F892
:10066000015BA169761C7F1E019888470546002F13
:100670001ADD681C18D0B9F1000F0DD0E81705EB92
:10068000D060421120F01F0059F822102A1A0120D0
:1006900090400142E0D107E0BBF1000FDCD1216ABC
:1006A000284688470028D7D0E16901988847BBF1E0
:1006B000000F07D1002E05DD5FEACA7002D10021CC
:1006C00088F80010A068B84203DDBBF1000F03D02A
:1006D00017B16FF00100B6E73046B4E72DE9FF4FE0
:1006E000087883B09946FF2805D0491C2D2804D0EE
:1006F0000024002008E000200BE00124F9E700EBD3
:10070000800003EB4000491C0B78FF2BF7D104B1AC
:10071000404200230293147819461D462D2C01D027
:100720002B2C04D1521C2D2C13D000240294AA4649
:100730001478FF2C0FD00A25A3FB057801FB058157
:100740004FF0000C03FB0C11521CE3194AEB0101A2
:10075000EEE70124EAE7814453EA010002D019F5EB
:10076000C87F06DA03980021C0E9001107B0BDE890
:10077000F08F0025AE4E2F46DFF8B882184600F005
:100780005DFBCDE90001B9F1000002DAC9F1000416
:1007900000E004460023A74A1AEB030B42EB045A7D
:1007A00012E0E00707D02A4633463846414600F0BB
:1007B00064FA074688462A4633461046194600F032
:1007C0005CFA05460E466410002CEAD1DDE9000112
:1007D000B9F1000F5A46534606DA00F0C0FA3A461D
:1007E000434600F0BCFA05E000F047FA3A464346BB
:1007F00000F043FA029A0AB181F00041039AC2E97B
:100800000001B3E72DE9FF4F1F468DB0D7E9014640
:100810004FF0FF382E2045464FF000090B90B96984
:100820006D1C0E988847396A824688470028F6D1A1
:10083000BAF1FF3F0AD024F4D064002E11DDBAF1E2
:100840002B0F08D0BAF12D0F0BD102E0404611B0AA
:100850008DE744F48064B9696D1C0E988847824620
:10086000761E6946600501D52D2000E02B208DF80D
:10087000000001F1010B0DF1200809E0B9696D1CC0
:100880000E98884782460F9844F40074761E0560DF
:10089000002E02DDBAF1300FF0D00B998A453ED11F
:1008A00044F0800406E00F99681CA9F1010944F4A2
:1008B00000740860B9696D1C761E0E9888478246E0
:1008C0003028F0D02BE00B998A4505D1200603D4BF
:1008D00044F08004761E18E0504606F099FA08B3FA
:1008E0000DF11301761E44F400748B4508D2AAF171
:1008F00030000BF8010B200607D5A9F1010003E039
:10090000200602D409F101008146A00502D50F9905
:10091000681C0860B9696D1C0E9888478246002ED5
:10092000D1DC53E0002E51DDBAF1650F02D0BAF1EF
:10093000450F4BD1A00549D5B9696D1C24F440740D
:10094000761E0E9888478246002E0CDD2B2804D098
:10095000BAF12D0F07D144F48074B9696D1C0E985B
:1009600088478246761EE00501D52D2100E02B2127
:1009700008F8011BCDF82C8021E00DF12901761E2D
:1009800044F4007488450CD2AAF1300010F0FF0046
:1009900088F8000002D10B99884509D908F10108AF
:1009A00006E0E00501D5244801E042F20F708146DF
:1009B000B9696D1C0E98884782460F980560002E15
:1009C00004DD504606F024FA0028D6D1F9690E98C5
:1009D0008847FF208BF8000088F800000020069070
:1009E00007904B466A4608A906A8FFF777FEA005C0
:1009F00002D46FF001002AE714F0240F0AD0E007B8
:100A000014D1DDE906123868031D3B600068C0E9B7
:100A100000120BE0DDE9060100F04CFA0146E007A8
:100A200004D13868021D3A600068016028460EE76C
:100A3000000014400000F03FF1D8FFFF30B50B4636
:100A4000014600202022012409E021FA02F59D42FE
:100A500005D303FA02F5491B04FA02F52844151ED2
:100A6000A2F10102F1DC30BD202A04DB203A00FAB9
:100A700002F1002070479140C2F1200320FA03F3F5
:100A8000194390407047202A04DB203A21FA02F0F3
:100A90000021704721FA02F3D040C2F120029140B8
:100AA0000843194670473A2800D2303820F0200217
:100AB000412A01D3A2F13700884201D34FF0FF3021
:100AC00070470000026811441378016018467047AF
:100AD000D16004495161044911620021116111463C
:100AE00000F02EBAC50A0008350F0008426842B16E
:100AF000016811F8013B23B1521EC0E900121846EB
:100B000070470121C160881E704742685AB1C368AE
:100B1000016843B983688B4205D0491E521CC0E965
:100B20000012002070474FF0FF3070472DE9FE4F54
:100B3000804681EA0300C00F0C46009021F000417E
:100B400023F00045B8EB0200A94105D240462146FA
:100B500090461C460B46024623F00040104347D007
:100B6000270DC7F30A00C3F30A510290401A0190FF
:100B700040286BDAC3F3130040F4801B00989246C0
:100B800020B10023D2EB030A63EB0B0B019859460B
:100B9000C0F140025046FFF767FF06460D4650463B
:100BA0005946019A00F0B4F910EB080061410024A5
:100BB00087EA115284EAE7731A4340D0009A62B37D
:100BC000019A012A4FEA075215DC001B61EB020172
:100BD0004FF0004202EA0752CDE90042001C41F505
:100BE000801132462B4600F087FB03B0BDE8F08F42
:100BF00040462146F9E7001B61EB0201001C41F56C
:100C0000801300185B412018A2F5001747EB030181
:100C100040EAD570B6196D4111E06D084FEA36060D
:100C200045EAC0754FEA0752001B61EB0201001C48
:100C300041F5801149084FEA300000195141324610
:100C40002B4603B0BDE8F04F00F047BB00980122EF
:100C500040000023D0EB020263EBE07300982146D2
:100C60004FEAE074B8EB000061EB0401E9E783F0C0
:100C700000435BE781F0004158E72DE9FE4F81EA30
:100C8000030404F0004421F0004100944FF0000BF5
:100C900023F0004350EA01045ED052EA03045BD023
:100CA000C3F30A54C1F30A552C44A4F2F33401945B
:100CB000A0FB0254C1F3130141F48011C3F31303E9
:100CC00043F4801301FB024400FB034E840A970A9D
:100CD00044EA815447EA8357A4FB076802958D0ACA
:100CE00005FB07854FEA932C04FB0C542705029D56
:100CF0004FEA065847EA1637B5EB08056EEB070CC6
:100D0000870E920E47EA811742EA8312A7FB02017F
:100D1000B6EB0B0164EB00042B0D43EA0C335E18B9
:100D200044EB1C50DA465146E7FB0201C5F31304BD
:100D30004FEA0B3343EA14534FEA0432019C43EA6F
:100D40000603A4F10C040294009CCDE900B400F069
:100D5000D3FA03B0BDE8F08F00200146F9E72DE992
:100D6000F04D81EA030404F0004B21F000451446E5
:100D70004FF0000A23F0004150EA050220D054EA67
:100D800001021DD0C5F30A570246C5F31303C1F390
:100D90001300C1F30A5640F4801543F48013A7EB07
:100DA0000608101BD64608F2FD3873EB050002D387
:100DB00008F1010801E092185B41B8F1000F03DA75
:100DC00000200146BDE8F08D00204FF4801106465A
:100DD00084460EE0171B73EB050705D3121B63EB6C
:100DE000050306434CEA010C49084FEA300092180B
:100DF0005B4150EA0107EDD152EA030012D082EACA
:100E0000040083EA0501084305D0101BAB4106D25C
:100E10000122002306E000224FF0004302E06FF0C1
:100E2000010253101AEB06004CEB085110EB0A00BC
:100E300041EB0B01BDE8F04D00F04FBA0EB540F2AA
:100E4000334202920022CDE90022134600F054FA08
:100E500003B000BDC1F30A52C1F3130140F2FF33E6
:100E600041F480119A4202DA00200146704740F2B4
:100E700033439A42A2F2334202DC5242FFF703BEEE
:100E8000FFF7F2BD30B5041E71F1000404DB4FF032
:100E90000044404264EB0101141E73F1000405DBC1
:100EA0001C464FF00043524263EB0403994208BFD3
:100EB000904230BD01F0004330B421F0004150EACF
:100EC000010206D00A0DA2F56072C1F31301002AD7
:100ED00002DC30BC00207047440F44EAC104C1006A
:100EE000E01830BC00EBC25000F0C0B9064C074D12
:100EF00006E0E06840F0010394E8070098471034EA
:100F0000AC42F6D3FFF7CCF9FCA100081CA2000804
:100F1000202A06DBCB17203A41FA02F043EAE073BD
:100F200006E041FA02F3D040C2F1200291400843AA
:100F300019467047C0B24FF4F05100F02BBA0000D0
:100F40002DE9F34F8BB04FF0000801F10C000C4677
:100F50004FF0010B46460DF1080A0190626901212C
:100F600001989047051E2DD0252D2CD0216A884749
:100F7000C0B16269012101989047216A8847002821
:100F8000F7D1411E62690198904700E0761CA16983
:100F90000B988847216A88470028F7D1E1690B98A8
:100FA0008847DBE7A1690B9888470746A84201D12B
:100FB000761CD3E7E1690B9888477F1C02D1B8F112
:100FC000000F6FD046E1002762693D46394601981F
:100FD00090472A2804D16269012101989047012590
:100FE000DFF884926269012101989047A0F13001F5
:100FF0000A290AD24F45E5DC07EB870100EB4107E0
:10100000303FDFD445F01005ECE7E90601D46FF07E
:1010100000476C280AD04C2814D0682815D06A28BC
:101020000DD074281CD07A281AD01DE062690121E5
:10103000019890476C2802D045F0040514E045F073
:1010400002050DE045F020050AE0626901210198E2
:101050009047682802D045F0080505E045F4006592
:101060006269012101989047C4E9015765283DD084
:1010700019DC58287AD00CDC452837D004DC252828
:1010800026D0412831D131E046282FD047282CD115
:101090002CE05B2877D0612828D063287CD0642896
:1010A00023D15AE0D0E06F2848D008DC66281DD054
:1010B00067281BD0692821D06E2816D127E0702818
:1010C00045D0732868D0752847D078280DD14DE0D9
:1010D000A1690B988847054625283FF469AFE16967
:1010E0000B9888476D1C3FF46AAFB3E023466A460D
:1010F0006FF001000B99FFF785FB9EE045F0400083
:101100006060A80723464FF0000236D43EE0E807AF
:101110007FF447AF2068011D21600068290501D5D3
:1011200006701BE7290701D5068017E7A90703D535
:10113000F117C0E9006111E706600FE745F04000D4
:101140006060A80723464FF0080216D41EE040F660
:101150000E0125EA0100606016E045F04000606085
:10116000A80723464FF00A0207D40FE045F04000DD
:101170006060A80708D5234610226FF001000B9984
:10118000AFF3008059E007E0234610226FF0010022
:101190000B99FFF78DF950E04FF000094F464B4691
:1011A000632802D05B2806D040E0E80601D4012085
:1011B000A06001273AE062690121019890475E280A
:1011C00005D14FF0010962694946019890472169AC
:1011D00039B900210A46534643F82120491C082901
:1011E000FADBB0B3216969B9C11700EBD1625311C1
:1011F0000AEB830122F01F02821A01200B68904043
:1012000003430B6062690121019890475D28E8D192
:10121000B9F1000F09D00020514651F82020D243E7
:1012200041F82020401C0828F7DB02AB224600973B
:101230006FF001000B99FFF7E1F900280CDA401C70
:1012400008D1BBF1000F05D04FF0FF300DB0BDE865
:10125000F08FFFE74046F9E7E90701D108F10108FF
:1012600006444FF0000B79E6CCCCCC0C0029A8BF8B
:101270007047401C490008BF20F00100704710B4BF
:10128000B0FA80FC00FA0CF050EA010404BF10BC74
:10129000704749B1CCF1200421FA04F411FA0CF1A1
:1012A00018BF012121430843A3EB0C01CB1D4FEADA
:1012B00000614FEA102042BF002010BC704700EBD5
:1012C000C35010440029A4BF10BC7047401C490003
:1012D00008BF20F0010010BC704710B5141E73F158
:1012E000000408DA401C41F1000192185B411A43E6
:1012F00001D120F0010010BD2DE9F04D92469B4632
:1013000011B1B1FA81F202E0B0FA80F220329046D7
:10131000FFF7AAFB04460F4640EA0A0041EA0B0128
:1013200053465A46084313D0114653EA010019D0D8
:10133000C8F140025046FFF7A6FB05460E46504650
:1013400059464246FFF790FB084305D0012004E0D0
:1013500020463946BDE8F08D0020054346EAE07698
:101360002C4337430A986305E40AA0EB08000022E7
:10137000FD0A44EA47540A3002D500200146E9E755
:10138000010510196941DDE9084500196941BDE809
:10139000F04DA2E77F2801D9002208E0064A02EBBF
:1013A0005002C007127800D1120902F00F0201208A
:1013B0009040084070470000ACA00008FEE7000025
:1013C000014800F061BB000048030020014800F024
:1013D0005BBB0000D0020020294A016891423AD04C
:1013E000274A1832914236D0254A3032914232D0C3
:1013F000234A483291422ED0214A603291422AD06B
:101400001F4A7832914226D01D4A9032914222D012
:101410001B4AA83291421ED01A4A91421BD0194A47
:101420001832914217D0174A3032914213D0154AE0
:10143000483291420FD0134A603291420BD0114A88
:101440007832914207D00F4A9032914203D00D4A30
:10145000A832914211D1CAB21823103AB2FBF3F26A
:101460006FF30901032A02F00703074AD25CC26541
:1014700000D9091D81650846704721F0FF01F9E791
:101480001000024010040240A4A0000830B5224A17
:10149000012301689142CAB21BD01F4C1434A142EF
:1014A00017D01D4C2834A14213D01B4C3C34A14210
:1014B0000FD0194C5034A1420BD0174C6434A142C8
:1014C00007D0154C7834A14203D0134C8C34A14280
:1014D0000CD11421114C083AB2FBF1F10F4A8032C1
:1014E00001F01F0504EB8101AB4010E00C4D182406
:1014F000103A0D44B2FBF4F1A82D00D80831094A86
:1015000001F01F0402EB8101064AA34080326030E3
:1015100080E80E0030BD0000085402580058025800
:10152000F0FBFDBF0008024010B50279531E072BE7
:101530002DD8174C0168A1421BD0154C1434A14280
:1015400017D0134C2834A14213D0114C3C34A14283
:101550000FD00F4C5034A1420BD00D4C6434A1423B
:1015600007D00B4C7834A14203D0094C8C34A142F3
:1015700003D10849074C443102E00749064C443185
:1015800004EB8202C0E91B2101219940416710BD93
:1015900008540258FC580258FC08024010B58369F0
:1015A0004FF0C074826A0146002053B1B3F5005F6A
:1015B00015D072B1012A0CD0022A0AD0032A09D10F
:1015C00004E01AB1012A06D0022A03D1C96AC9016E
:1015D00000D5012010BDC96AA142FAD010BD002A71
:1015E000F7D0012AF2D0022AF3D0032AF3D010BD9B
:1015F00070B5D0E91964856D7460C46E14B1D0E91A
:101600001C466660404E0468B4423AD03E4E1836DE
:10161000B44236D03C4E3036B44232D03A4E4836E0
:10162000B4422ED0384E6036B4422AD0364E783688
:10163000B44226D0344E9036B44222D0324EA83630
:10164000B4421ED0314EB4421BD0304E1836B44294
:1016500017D02E4E3036B44213D02C4E4836B442FA
:101660000FD02A4E6036B4420BD0284E7836B442A2
:1016700007D0264E9036B44203D0244EA836B4424A
:1016800014D190F85C603F2406F01F06B440AC60B3
:101690000468256825F4802525602DE09A6000689F
:1016A000C16070BD99600068C26070BD184EB442E0
:1016B0001BD0174E1436B44217D0154E2836B442FC
:1016C00013D0134E3C36B4420FD0114E5036B442B4
:1016D0000BD00F4E6436B44207D00D4E7836B4426C
:1016E00003D00B4E8C36B442DFD190F85C600124FD
:1016F00006F01F06B4406C60046863608368402B8A
:101700000368CFD1CAE70000100002401004024075
:10171000085402587047704730B50424124BCD0767
:1017200044EA00200BD0DC6824F4E664DC60DC686A
:1017300014430443DC60DC6844F08004DC60890707
:1017400011D5D3F80C1121F4E661C3F80C11D3F8CC
:101750000C1111430143C3F80C11D3F80C0140F0F4
:101760008000C3F80C0130BD00200052CB431E4A5C
:101770009B0722D0CB0740F008000AD0D36823F0A3
:101780003003D360D3680343D360D36843F080034E
:10179000D360890710D5D2F80C1121F03001C2F8BE
:1017A0000C11D2F80C110143C2F80C11D2F80C0143
:1017B00040F08000C2F80C017047D16821F0300180
:1017C000D160D2F80C1121F03001C2F80C11D168AF
:1017D0000143D160D2F80C110143C2F80C11906999
:1017E00040F0100090617047002000522DE9F04752
:1017F0000E46804601F060F9012E814601D0294D48
:1018000000E00425DFF8A0A0284C05EA0A0777B31A
:10181000D4F8100125EA00004000D0B1012E2BD0F1
:101820002349D4F81001084040F00040410027D07F
:1018300020498A6910EA0A0F42EA00028A6101D14E
:10184000606103E020F00040C4F814010120BDE80D
:10185000F087B8F1FF3FDAD001F02EF9A0EB0901D3
:10186000414502D8B8F1000FD1D10320EFE7FFE7DF
:10187000206925EA0000D0E70F4920690840D5E734
:10188000012E4FF4803007D0D4F81011C90301D5D0
:10189000C4F814010020DAE72169C903FAD56061B0
:1018A000F8E7000004000080F0FF10E00020005284
:1018B0000000EE97080800200000EE172DE9F05F09
:1018C00028B190F83510022904D08021416501200B
:1018D000BDE8F09F634A634B624F183201683033B2
:1018E000614C624DB942DFF888A1DFF88891DFF8DA
:1018F00088B1DFF88881DFF888E1624E32D091420A
:1019000030D099422ED0A1422CD0A9422AD05145A4
:1019100028D0494526D0594524D0C446614521D018
:10192000DFF858C10CF1180C61451BD0DFF84CC131
:101930000CF1300C614515D0DFF844C1ACF1300C2E
:1019400061450FD0DFF838C1ACF1180C614509D002
:10195000714507D0DFF828C10CF1180C614501D0A2
:10196000B1422ED14FF0040C80F835C0B94223D0DB
:10197000914221D099421FD0A1421DD0A9421BD033
:10198000514519D0494517D0594515D0414513D077
:101990003A48183081420FD03848303081420BD05D
:1019A00037483038814207D035481838814203D053
:1019B000714501D032481830086820F001000860F5
:1019C0004DE0D1F8008028F00E08C1F800800168D1
:1019D000B9421ED091421CD099421AD0A14218D0CF
:1019E000A94216D0514514D0494512D0594510D0BE
:1019F000224A91420DD0214A1832914209D01F4A01
:101A00003032914205D01E4A303A914201D01C4AF0
:101A1000183A0A6822F001020A60026E0121136876
:101A200023F48073136090F85C30826D03F01F0321
:101A300001FA03F35360D0E919235360C26E32B147
:101A4000136823F480731360D0E91C2353600023D0
:101A5000026D80F8343080F8351002B190470020D4
:101A600036E70000100002405800024070000240BB
:101A700088000240A0000240B8000240100402406A
:101A800088040240B80402402DE9FC5F0446FA4E87
:101A90000020DFF8E48300904FF41652F74808F175
:101AA0001808A56DDFF8D0A3DFF8CCB301680AF100
:101AB000300A20680BF1480BB1FBF2F1B042019102
:101AC0002F68D5F800C0DFF8B89336D04146884279
:101AD00033D0504531D058452FD0E7496031884246
:101AE0002BD0E5497831884227D0E34990318842AC
:101AF00023D0E149A83188421FD048451DD0E04994
:101B00001831884219D0DE493031884215D0DC4A7C
:101B10004832904211D0DA49603188420DD0DFF866
:101B200060E30EF1780E704507D0D54B90339842A4
:101B300003D0D349A83188427ED194F85C20082193
:101B400002F01F0201FA02F23A424BD0B04233D007
:101B5000404531D050452FD058452DD0C64A60322F
:101B6000904229D0C44A7832904225D0C24A90325D
:101B7000904221D0C04AA83290421DD048451BD087
:101B8000BF4A1832904217D0BD4A3032904213D02B
:101B9000BB4A483290420FD0B94A603290420BD0D3
:101BA000B74A7832904207D0B54A9032904203D07B
:101BB000B34AA832904203D1026802F0040202E064
:101BC000026802F008026AB1026822F004020260B0
:101BD00094F85C0000F01F008140A960606D40F047
:101BE0000100606594F85C00012100F01F00814055
:101BF000394241D02068B04235D0404533D05045BD
:101C000031D058452FD09C4A603290422BD09A4A0E
:101C10007832904227D0984A9032904223D0964A08
:101C2000A83290421FD048451DD0954A18329042A4
:101C300019D0934A303200E0B2E1904213D0904A7A
:101C4000483290420FD08E4A603290420BD08C4A7C
:101C50007832904207D08A4A9032904203D0884A24
:101C6000A83290427ED1406910F0800F04D0A96064
:101C7000606D40F00200606594F85C00042100F0A3
:101C80001F00814039423FD02068B04233D04045E8
:101C900031D050452FD058452DD0774A60329042F0
:101CA00029D0754A7832904225D0734A90329042BA
:101CB00021D0714AA83290421DD048451BD0704AAD
:101CC0001832904217D06E4A3032904213D06C4A8C
:101CD000483290420FD06A4A603290420BD0684A34
:101CE0007832904207D0664A9032904203D0644ADC
:101CF000A83290424FD1006810F0020F04D0A960C2
:101D0000606D40F00400606594F85C00102100F004
:101D10001F008140394259D02068B04235D040453B
:101D200033D0504531D058452FD0534A603290427D
:101D30002BD0514A7832904227D04F4A903290426D
:101D400023D04D4AA83290421FD048451DD04C4A5E
:101D50001832904219D04A4A3032904215D0484A3F
:101D6000483200E015E090420FD0454A6032904280
:101D70000BD0434A7832904207D0414A9032904289
:101D800003D03F4AA832904207D1006800F0080013
:101D900006E0006870E70068B6E7006800F004003D
:101DA000A0B1A96020680168490304D50068000358
:101DB00008D5A16C07E00168C90503D4016821F0CA
:101DC00008010160216C09B12046884794F85C0045
:101DD000202100F01F008140394278D02068B042B5
:101DE00033D0404531D050452FD058452DD0224AD0
:101DF0006032904229D0204A7832904225D01E4A43
:101E00009032904221D01C4AA83290421DD04845C1
:101E10001BD01B4A1832904217D0194A30329042D8
:101E200013D0174A483290420FD0154A6032904280
:101E30000BD0134A7832904207D0114A9032904228
:101E400003D00F4AA832904203D1006800F010007E
:101E500002E0006800F00200A0B3A96094F8350029
:101E60000428206801680DD049037DD5006800036F
:101E700029D4616C28E000001000024054000020CA
:101E80001004024021F0160101602068416921F030
:101E900080014161206C08B9A06C20B12068016804
:101EA00021F00801016094F85C303F21002203F02A
:101EB0001F0301209940A96084F8342084F835007C
:101EC000216D66E003E0E16B09B120468847606D53
:101ED00000287DD0606DC0075AD02068042184F8A6
:101EE0003510B0422BD0404529D0504527D0584519
:101EF00025D09E49884222D09C49183188421ED064
:101F00009A49303188421AD098494831884216D0CF
:101F1000484514D09649884211D0954918318842D5
:101F20000DD093493031884209D0914948318842D7
:101F300005D08F496031884201D08D4978310168E0
:101F400021F00101016020680099019A491C00916B
:101F5000914202D80168C907F6D1002184F83410F3
:101F60000068C00711D000E001E003200EE0016826
:101F7000C905A8D403680022012123F010030360DF
:101F800084F8342084F835109DE7012084F835006A
:101F9000E16C00291CD002B02046BDE8F05F084784
:101FA000744988421DD073491431884219D071494F
:101FB0002831884215D06F493C31884211D06D4993
:101FC000503188420DD06B496431884209D000E01D
:101FD00086E068497831884203D066498C3188426E
:101FE0007ED194F85C800427016808F01F0807FA86
:101FF00008F717EA0C0F009746D04F0744D5009812
:102000000F04686003D5C8033CD4A16CC1E78806FF
:1020100038D42068B0422DD054494839884229D05C
:10202000504527D0584525D05049884222D04F49A5
:10203000183188421ED04D49303188421AD04B4960
:102040004831884216D0484514D04949884211D0B9
:102050004749183188420DD090420BD0444948314D
:10206000884207D0704505D0984203D0404990314E
:10207000884203D1016821F0080102E0016821F0E3
:1020800004010160216C84E7022707FA08F717EAC8
:102090000C0F00974ED08F074CD500980F04686046
:1020A00003D5C80344D4616C73E7880640D4206824
:1020B000B0422FD02D49483988422BD0504529D0E5
:1020C000584527D02949884224D0284918318842C8
:1020D00020D02649303188421CD02449483100E0C4
:1020E00041E0884216D0484514D02149884211D099
:1020F0001F49183188420DD090420BD01C494831FD
:10210000884207D0704505D0984203D018499031D5
:10211000884203D1016821F0140102E0016821F036
:102120000A010160002184F83410012084F8350090
:10213000E16B2EE7082202FA08F212EA0C0F12D025
:10214000090710D5016821F00E01016094F85C10B8
:102150000120002201F01F0100FA01F169606065B1
:1021600084F8342012E7BDE8FC9F000070000240B4
:1021700028040240085402582DE9F05F044600F09C
:102180009BFC002C074676D0A5494FF00106A44AD7
:102190004FF0000520681831DFF88C82DFF88C9250
:1021A0009042A04ADFF888A2DFF888B2DFF888E220
:1021B0002CD088422AD0904228D0404526D048458D
:1021C00024D0504522D0584520D070451ED09B4B7E
:1021D00098421BD0994B1833984217D0974B303305
:1021E000984213D0954B483398420FD0934B6033AD
:1021F00098420BD0914B7833984207D08F4B903355
:10220000984203D08D4BA833984275D1DFF810C2A5
:10221000022384F8345084F83530604526D0884253
:1022200024D0904222D0404520D048451ED0504571
:102230001CD058451AD0704518D08049884215D016
:102240007E491831884211D07C49303188420DD006
:102250007A494831884209D078496031884205D0AE
:1022600076497831884201D074499031016821F073
:102270000101016007E0B4E000F01EFCC01B05286E
:1022800001D92021A9E020680068C007F4D104F139
:1022900008002168D4E9053C894685C809681043CF
:1022A000D4E907281F43636A3843654F40EA0C00AE
:1022B0001043394040EA0800042B40EA010003D1F2
:1022C000D4E90B1211430843C9F800002068676A7B
:1022D0004069042F20F0070047EA00070DD1D4E938
:1022E0000A01074349B12046FFF758F928B14020B9
:1022F000606584F8356074E00CE020684761204632
:10230000FFF76AF894F85C203F2102F01F02914029
:10231000816055E04B4988421BD04A4914318842BC
:1023200017D048492831884213D046493C31884269
:102330000FD04449503188420BD042496431884221
:1023400007D040497831884203D03E498C318842D9
:1023500042D13D4B022184F8345084F83510016895
:10236000A26801EA0309402A31D0802A31D0002234
:10237000D4E90378D4E9053142EAD70242EAD80821
:10238000304AD4E9077C48EAD30848EAD10141EA57
:10239000D701524241EA1C11142341EA09010160AC
:1023A00020681044B0FBF3F08000E0652046FFF7A2
:1023B00013F894F85C1001F01F0106FA01F1416076
:1023C0002046FFF763F8A06880280DD00DE01022AA
:1023D000CEE74FF48042CBE740216165032084F8CB
:1023E00035000120BDE8F09F6560216E207908600E
:1023F000D4E9190141606068401E072808D82046CA
:10240000FFF792F8E06E0560D4E91C01416002E03C
:10241000E56625676567656584F835600020E1E756
:10242000100002404000024058000240700002408C
:1024300088000240A0000240B800024010040240A0
:102440003F8010FE085402580F00FEFF2DE9F84FA0
:1024500004008C464FF00000009013D094F8340034
:10246000012811D094F835500120002184F834005F
:10247000012D0BD084F83410C202009062650098E0
:10248000BDE8F88F0120FBE70220F9E7644D022642
:10249000206884F83560A842624D6165624E634FE2
:1024A000DFF88C81DFF88C91DFF88CA1DFF88CB13C
:1024B00026D0A84224D0B04222D0B84220D04045F5
:1024C0001ED048451CD050451AD0584518D05C49FC
:1024D000884215D05A491831884211D058493031B4
:1024E00088420DD056494831884209D0544960315C
:1024F000884205D052497831884201D05049903104
:10250000016821F00101016061462046FFF770F883
:102510004349206888422CD0A8422AD0B04228D013
:10252000B84226D0404524D0484522D0504520D03E
:1025300058451ED0424A90421BD0414A1832904220
:1025400017D03F4A3032904213D03D4A4832904231
:102550000FD03B4A603290420BD0394A78329042D9
:1025600007D0374A9032904203D0354AA832904281
:102570000CD1026822F01E0242F016020260206CAA
:1025800088B12068026842F008020BE0026822F07D
:102590000E0242F00A020260206C20B1206802683C
:1025A00042F004020260206E0268D20303D5026882
:1025B00042F480720260E06E18B1026842F48072E8
:1025C00002602068884226D0A84224D0B04222D09F
:1025D000B84220D040451ED048451CD050451AD0A6
:1025E000584518D01649884215D0154918318842E7
:1025F00011D01349303188420DD0114948318842F9
:1026000009D00F496031884205D00D4978318842A0
:1026100001D00B499031016841F0010101602EE7C2
:1026200010000240280002404000024058000240D2
:102630007000024088000240A0000240B800024042
:102640001004024070B5044600F036FA0546601CDE
:1026500002D004480078044400F02EFA401BA04247
:10266000FAD370BD5C0000202DE9F05F04464148BC
:1026700088460026017D01291AD001220275814673
:10268000B246C0F818A02079C00706D001214CF24C
:102690005030FFF7ABF800B10126207980070AD54A
:1026A00002214CF25030FFF7A1F820B101265DE085
:1026B0000220BDE8F09F6EBB20682F4D012807D097
:1026C0004FF0FF31C8F80010A76840F2047B48E0E3
:1026D00061682069FFF74AF82079C0070AD0012114
:1026E0004CF25030FFF782F800B10126E86820F084
:1026F0000800E8602079800738D502214CF250307C
:10270000FFF774F800B10126D5F80C0120F008009D
:10271000C5F80C012AE0226938466168FEF7FCFF23
:102720002079C00709D001214CF25030FFF75EF844
:10273000E968064621EA0B01E960207980070BD59C
:1027400002214CF25030FFF751F8D5F80C11064633
:1027500021EA0B01C5F80C1116B1C8F8007005E0AC
:102760007F1CD4E902010844B842D4D8304689F825
:1027700014A09EE708080020002000520A48C16803
:1027800041F00101C160C168C9070BD0D0F80C113C
:1027900041F00101C0F80C11D0F80C01C00701D0C4
:1027A0000020704701207047002000522DE9F05FA3
:1027B0002948154608260C46027D012A08D0012228
:1027C0000275A4F10061B1F5801F04D2012703E076
:1027D0000220BDE8F09F02274FF0000A8146C0F8B2
:1027E00018A04CF2503B39465846FEF7FFFF30BB6D
:1027F000DFF86880012F404624D0D0F80C1141F05A
:102800000201C0F80C1100BFBFF36F8FBFF34F8FF1
:1028100001CD761E16F0FF0601C4F9D1BFF36F8F0C
:10282000BFF34F8F39465846FEF7E0FF012F414670
:102830000DD0D1F80C2122F00202C1F80C2189F848
:1028400014A0C6E7C16841F00201C160DCE7CA68B4
:1028500022F00202CA60F2E70808002000200052BD
:102860000D480E4A0E49C368DB0704D04260416040
:10287000C368DB070BD1D0F80C31DB0709D0C0F8F7
:102880000421C0F80411D0F80C01C00701D00120C8
:102890007047002070470000002000522301674568
:1028A000AB89EFCD2DE9F84F714C00234FF0B04EBE
:1028B0004FF001094FF0030B4FF00F0AD0E000BFBB
:1028C00009FA03F812EA080274D04D68022D01D00B
:1028D000122D0FD1DD085F0700EB850500950E690D
:1028E0002D6AFF0E0AFA07FCBE4025EA0C052E43AE
:1028F000009D2E625D000F7906680BFA05FC07F05B
:10290000030726EA0C06AF40374307604E68012EE6
:1029100005D0022E03D0112E01D0122E0FD18668C1
:10292000CF6826EA0C06AF403743876046680F79C8
:1029300026EA0806C7F300179F4037434760C6687A
:102940008F6826EA0C06AF403743C7604D68ED003C
:1029500030D5484D2E6846F002062E602D6823F0D3
:10296000030606F1B04605F0020500959D072F0FFE
:10297000D6F80854DFF800810AFA07FC404525EA3A
:102980000C0502D14FF0000C41E0DFF8F0C06045CB
:1029900002D14FF0010C3AE0DFF8E4C0604502D10B
:1029A0004FF0020C33E0DFF8DCC0604503D14FF09C
:1029B000030C2CE053E0DFF8D0C0604502D14FF0AB
:1029C000040C24E0DFF8C4C0604502D14FF0050CD0
:1029D0001DE0DFF8BCC0604502D14FF0060C16E0E8
:1029E000DFF8B0C0604502D14FF0070C0FE0DFF810
:1029F000A8C0604502D14FF0080C08E0DFF89CC089
:102A0000604502D14FF0090C01E04FF00A0C0CFABE
:102A100007FC4CEA050CC6F808C425684E6825EA90
:102A20000205F60300D51543256065684E6825EA62
:102A30000205B60300D5154365604F687546DEF89C
:102A40000060FF0226EA020600D516432E604F689A
:102A50006E68BF0226EA020600D516436E605B1C54
:102A60000A6832FA03F57FF42BAFBDE8F88F000057
:102A700080000058F4440258000002580004025834
:102A800000080258000C02580010025800140258A6
:102A900000180258001C0258002002580024025856
:102AA0000AB1816170470904FBE700000148006832
:102AB000000C70470010005C0148806870470000FF
:102AC0005C000020024881680278114481607047F0
:102AD0005C000020032010B500F0A2F801F0FEF821
:102AE0000E490F4A0F4B0C68C4F30324145D04F025
:102AF0001F04E0401860096801F00F01515C01F00B
:102B00001F01C84008490860002000F00FF808B114
:102B1000012010BD00F044F8002010BD18440258F8
:102B200094A00008540000205800002010B5002296
:102B3000014676208AB000F053F8762000F042F883
:102B40001348016841F480210160006808A900F47D
:102B500080200990684601F059F801F0ADF80D4960
:102B6000400000220C4CB0FBF1F10C4840F2E7337E
:102B70000460C0E90332491EC0E9011201F0F8FB0C
:102B800010B101200AB010BD044801F02BFCF9E798
:102B9000F044025840420F0000480140C80700209E
:102BA000074882B0016841F002010160006800221C
:102BB0000F2100F002000090901E02B000F010B84B
:102BC000F4440258002809DB410900F01F02890083
:102BD000012001F1E0219040C1F8000170470000A0
:102BE0000E4BF0B41B680D46C3F30223C3F1070676
:102BF000042E00D90426191D072901D2002300E064
:102C0000DB1E012404FA06F19C40491E2940641E83
:102C1000994014402143F0BC04F018B80CED00E0DA
:102C2000064900F0070210B54FF6FF040868044B90
:102C3000204040EA02201843086010BD0CED00E07F
:102C40000000FA0501680123C0F8FC33002280F877
:102C5000F4238869044A40F000608861486D10439D
:102C60004865002070470000030000102DE9F04186
:102C700004008AB005D094F8BD030025266820B171
:102C800008E001200AB0BDE8F081204684F8BC537A
:102C900000F066F8032084F8BD03F06BC00500D493
:102CA0002561206803F066FF04F1100168462822C0
:102CB0008846FDF79EFB94E80F0003F033FE0227E1
:102CC000D8BB2068002103F07DFF0020012610E022
:102CD000C0EBC001421C04EB810181F83D6081F82A
:102CE0003F504D648D640D6581F83C00A1F84200B1
:102CF000D0B261688142EBD8002011E0C0EBC00186
:102D0000421C04EB810181F8FD5181F8FF51C1F8AB
:102D10000452C1F80852C1F8105281F8FC01D0B237
:102D200061688142EAD8282241466846FDF761FB86
:102D300094E80F0003F05AFE10B184F8BD73A0E7C9
:102D4000606A84F8385084F8BD63012802D12046B7
:102D5000FFF778FF206803F03DFE002092E70000B7
:102D600030B587B0044614216846FDF75BFB18496F
:102D70002068884229D11748016841F001010160AB
:102D8000006800240221144D00F0010005904FF46A
:102D9000E8500A228DE81300CDE90342694628462F
:102DA000FFF780FD4FF400706946CDE90004284626
:102DB0000294FFF777FD07480838016841F0006189
:102DC0000160006800F00060059007B030BD0000B1
:102DD00000000840E044025800000258124970B553
:102DE0000A68520706D40A6802F00702824201D03C
:102DF000012070BD0A6822F0070202430A60FFF753
:102E00005BFE094D4FF47A760446083D07E000BFAB
:102E1000FFF752FE001BB04201D9032070BD2868A5
:102E20008004F5D5002070BD0C48025802480168A6
:102E300041F08071016070470C48025810B500F0F5
:102E40004DFF064A06491268064BC2F303229A5CFC
:102E500002F01F02D040086010BD00001844025864
:102E60005400002094A0000810B500F0FDFE0549B4
:102E70000968054AC1F30211515C01F01F01C84005
:102E800010BD00002044025894A00008494930B504
:102E9000484C0B1D0A68143409681D68246802F048
:102EA000030305F01002C1F30531C4F3CC0400297B
:102EB00014FB02F200EE102AF8EE400A75D03F4AE9
:102EC0009FED3D1AB7EE000A6BB1DFED3D1A012B05
:102ED00001D0022B64D002EE101A1168F8EE422ADB
:102EE00081EEA22A21E0334C283C23689B0612D5B0
:102EF000344B246801EE901A1168C4F3C104F8EE53
:102F0000612AE34001EE903AC1F30801F8EE611A3C
:102F100081EEA22A0BE001EE901ADFED2B2A00BF12
:102F2000F8EE611A116882EEA12AC1F3080101EEE0
:102F3000901A1168F8EE611A40EE811A71EE800A5B
:102F400062EE200AC1F3462101EE101AB8EE411AD2
:102F500031EE001AC0EE811ABCEEE11A80ED001AC3
:102F60001168C1F3064101EE101AB8EE411A31EEB4
:102F7000001AC0EE811ABCEEE11A80ED011A116848
:102F8000C1F3066101EE101AB8EE411A31EE000AE3
:102F900080EE801ABCEEC10A80ED020A30BD04E06A
:102FA00001EE901ADFED092ABAE7002101604160C5
:102FB0008160F3E728440258000000393844025881
:102FC0000024744A0090D0030024744C0024F44A76
:102FD000494930B5484C0B1D0A681C3409681D6806
:102FE000246802F0030305F48072C1F30551C4F3B1
:102FF000CC04002914FB02F200EE102AF8EE400A7D
:1030000075D03F4A9FED3D1AB7EE000A6BB1DFED78
:103010003D1A012B01D0022B64D002EE101A116868
:10302000F8EE422A81EEA22A21E0334C283C2368A4
:103030009B0612D5344B246801EE901A1168C4F334
:10304000C104F8EE612AE34001EE903AC1F30801B1
:10305000F8EE611A81EEA22A0BE001EE901ADFED84
:103060002B2A00BFF8EE611A116882EEA12AC1F383
:10307000080101EE901A1168F8EE611A40EE811A0B
:1030800071EE800A62EE200AC1F3462101EE101AA9
:10309000B8EE411A31EE001AC0EE811ABCEEE11A08
:1030A00080ED001A1168C1F3064101EE101AB8EE66
:1030B000411A31EE001AC0EE811ABCEEE11A80ED21
:1030C000011A1168C1F3066101EE101AB8EE411A37
:1030D00031EE000A80EE801ABCEEC10A80ED020AD1
:1030E00030BD04E001EE901ADFED092ABAE70021B5
:1030F000016041608160F3E7284402580000003914
:10310000404402580024744A0090D0030024744CB8
:103110000024F44A2DE9FC5F044650F8241B0025E6
:1031200000902E460801FE4FDFF8F8931DD5606E23
:1031300050B1B0F5801F0CD0B0F5001F0ED0B0F527
:10314000401F1DD001250FE0386840F40030386082
:1031500016E00221201D01F02FFF03E0009802215C
:1031600001F0BAFF05000BD02E462088C00523D5FC
:10317000606D05281ED2DFE800F00C11161B1B0045
:10318000626ED9F8001021F440111143C9F8001003
:10319000EBE7386840F40030386009E00021201D7A
:1031A00001F00AFF03E00098002101F095FF0546B9
:1031B0006DB100E001252E462088800528D5A06D40
:1031C00080281ED00CDC90B140280ED114E0626D36
:1031D000D9F8001021F007011143C9F80010EBE7FE
:1031E000C02813D0B0F5807F10D001250FE03868DB
:1031F00040F40030386009E00021201D01F0DCFEC1
:1032000003E00098002101F067FF054695B12E46C6
:103210002088DFF81083400508F108082CD5D4F881
:10322000A400B0F5800F20D00DDCA0B1B0F5001FD8
:103230000FD115E0A26DD9F8001021F4E07111430F
:10324000C9F80010E4E7B0F5C00F13D0B0F5000FD7
:1032500010D001250FE0386840F40030386009E0F4
:103260000021201D01F0A8FE03E00098002101F0DC
:1032700033FF054675B12E46208800052DD5D4F8BC
:10328000A800B0F1007F21D00EDCA8B1B0F1807FA2
:1032900010D116E0D4F8A420D8F8001021F4600171
:1032A0001143C8F80010E7E7B0F1407F13D0B0F148
:1032B000806F10D001250FE0386840F4003038608E
:1032C00009E00021201D01F077FE03E000980021B5
:1032D00001F002FF05466DB12E46206880011FD522
:1032E000A06CD8B110280FD0202812D0302815D0CB
:1032F000012514E0D4F8A820D8F8001021F0E061EE
:103300001143C8F80010E8E7386840F4003038602E
:1033100004E00221201D01F04FFE05466DB12E464E
:103320002088C0042BD5E06DB0F5005F20D00DDC07
:10333000A0B1B0F5805F0FD115E07A48A26C001FF4
:10334000016821F0300111430160E9E7B0F5405F09
:1033500013D0B0F5804F10D001250FE0386840F44D
:103360000030386009E00021201D01F025FE03E057
:103370000098002101F0B0FE054685B12E46208858
:10338000800429D5206EB0F5403F23D010DC08B36F
:10339000B0F5803F14D0B0F5003F0FD115E0E26DDD
:1033A000D9F8001021F4E0411143C9F80010E6E714
:1033B000B0F5802F0ED0B0F5A02F0BD001250AE07C
:1033C0000121201D01F0F8FD03E00098012101F02A
:1033D00083FE05468DB12E46208840042AD5D4F8B8
:1033E000AC00B0F1405F23D010DC08B3B0F1805FD7
:1033F00014D0B0F1005F0FD115E0226ED9F80010A3
:1034000021F4E0211143C9F80010E5E7B0F1804F45
:103410000ED0B0F1A04F0BD001250AE00121201DF4
:1034200001F0CAFD03E00098012101F055FE0546B8
:103430006DB12E46208800041FD5E06ED8B1B0F1E2
:10344000805F0ED0B0F1005F10D0012514E0D4F8F9
:10345000AC20D8F8001021F0E0411143C8F800106A
:10346000E8E7386840F40030386004E00121201DAE
:1034700001F0A2FD05466DB12E462068C0011ED5A3
:10348000606CD0B101280ED0022811D0032814D0CE
:10349000012513E0E26ED9F8001021F040511143EC
:1034A000C9F80010E9E7386840F40030386004E0FB
:1034B0000221201D01F080FD054685B12E462068C1
:1034C000DFF85CB04002ABF11C0B57D51648016821
:1034D00041F480710160FFF7EFFA82460EE0114877
:1034E000626C001F016821F0030111430160E6E7EF
:1034F000FFF7E2FAA0EB0A0064283DD80A4800680A
:10350000C005F5D57DBBDFF81CA0B4F8B0100AF1FA
:10351000200ADAF8000001F4407100F4407005E080
:103520002C4402585044025800480258884211D096
:10353000DAF80010DAF8002021F4407142F4803209
:10354000CAF80020DAF8002022F48032CAF80020FD
:10355000CAF80010D4F8B000B0F5807F21D1FFF791
:10356000ABFA019019E008E0FFF7A6FA0199411AB9
:1035700041F28830814210D903252E462078DFF8A9
:103580002CA4C0073DD0A06F182838D026DC80B30B
:10359000082829D0102825D12CE0DAF8000080076F
:1035A000E2D5D4F8B010C1F30120032858460DD05D
:1035B000016821F47C510160B4F8B020DAF8001001
:1035C000C2F30B021143CAF80010D7E7F84A0368A8
:1035D00002EA111223F47C511143ECE720280ED0AB
:1035E00028280CD001250BE00121201D01F0E4FC6E
:1035F00004E004E00098012101F06EFD05465DB194
:103600002E46207880071ED5606F062819D2DFE885
:1036100000F0160C11161616A26FDAF8001021F041
:1036200038011143CAF80010EBE70121201D01F019
:10363000C3FC03E00098012101F04EFD054675B181
:1036400000E001252E46207840071FD5D4F89000D1
:10365000062819D2DFE800F0160C11161616626F54
:10366000DAF8001021F007011143CAF80010EAE768
:103670000121201D01F0A0FC03E00098012101F0D0
:103680002BFD05469DB100E001252E4620788006E1
:103690002BD5D4F88C00B0F1405F24D011DC10B3EE
:1036A000B0F1805F15D0B0F1005F10D116E0D4F812
:1036B0009020D8F8001021F007011143C8F800103D
:1036C000E4E7B0F1804F0ED0B0F1A04F0BD0012550
:1036D0000AE00021201D01F06FFC03E000980221A8
:1036E00001F0FAFC05468DB12E46207840062BD518
:1036F000D4F89800B0F5406F24D011DC10B3B0F5C9
:10370000806F15D0B0F5006F10D116E0D4F88C2082
:10371000DAF8001021F0E0411143CAF80010E4E7A4
:10372000B0F5805F0ED0B0F5A05F0BD001250AE0A8
:103730000021201D01F040FC03E00098022101F06F
:10374000CBFC05468DB12E46207800062BD5D4F84B
:103750009C00B0F5C04F24D011DC10B3B0F5005F71
:1037600015D0B0F5804F10D116E0D4F89820D8F8D5
:10377000001021F4E0511143C8F80010E4E7B0F55F
:10378000004F0ED0B0F5204F0BD001250AE00021EC
:10379000201D01F011FC03E00098022101F09CFCC7
:1037A000054665B32E46207800070BD5D4F8801067
:1037B000B1F5805F2DD0DAF8002022F440520A43A0
:1037C000CAF800202078C0060BD5D4F89410B1F5C3
:1037D000807F26D0D8F8002022F440720A43C8F82F
:1037E00000202068000330D5D4F8A00008B3B0F55D
:1037F000803F23D0B0F5003F25D0012524E0D4F848
:103800009C20D8F8001021F460411143C8F8001042
:10381000C9E70098022101F05FFC0028D2D0012600
:10382000D0E70098022101F057FC0028D9D00126EA
:10383000D7E70021201D01F0BFFB03E00098022123
:1038400001F04AFC054685B12E462068400322D58A
:10385000D4F88400B0F5801F11D0B0F5001F13D04C
:10386000B0F5401F15D0012514E0D4F8A020D8F8F9
:10387000001021F440311143C8F80010E5E7386822
:1038800040F40030386004E00098012101F024FC8D
:10389000054655B12E462068C0031CD5E06C70B1BA
:1038A000B0F5803F10D0012514E0D4F88420DAF878
:1038B000001021F440111143CAF80010EBE73868FA
:1038C00040F40030386004E00221201D01F074FB58
:1038D0000546CDB12E462068800005D5009802210E
:1038E00001F0FAFB00B10126206880031BD5E06FD0
:1038F000B8B1B0F5807F10D0B0F5007F11D0B0F531
:10390000407F0ED001250DE02848E26C08380168A0
:1039100021F4803111430160DDE7386840F4003064
:103920003860EDB32E462068C00207D5226FD9F863
:10393000001021F000411143C9F800102068C000B8
:1039400008D5D4F8B420DBF8001021F480411143ED
:10395000CBF800102068800207D5A26ED9F80010BD
:1039600021F080711143C9F80010206840000CD587
:10397000DBF8001021F40041CBF80010DBF8001058
:10398000D4F8B8201143CBF800102068002809DAD9
:103990000648226D0838016821F04051114300E0CB
:1039A00008E001607EB10120BDE8FC9F544402584C
:1039B000CFFFFF00E26FDAF8001021F440711143ED
:1039C000CAF80010AFE70020EEE700002DE9F05F35
:1039D00004000F467ED0DFF82482D8F8000000F003
:1039E0000F00B8420CD2D8F8001021F00F01394373
:1039F000C8F80010D8F8000000F00F00B84269D1F4
:103A000020787F4D40070AD52069296801F07001B0
:103A1000884204D9296821F0700101432960207887
:103A2000774E361D00070AD56069316801F07001D4
:103A3000884204D9316821F0700101433160207857
:103A4000C0060AD5A069316801F4E061884204D952
:103A5000316821F4E061014331602078DFF8A0B1E2
:103A600080060BF1080B0CD5E1695846DBF8002005
:103A700002F07002914204D9026822F070020A43F7
:103A80000260207880070AD5E068296801F00F01FC
:103A9000884204D9296821F00F0101432960207868
:103AA000C0073ED05649A2682868183920F47060D3
:103AB000104328606068022818D0032819D00968CC
:103AC000012819D0490700294ADADFF834A1AAF100
:103AD000080A00E044E0DAF8002022F0070202437E
:103AE000CAF80020FEF7E8FF814612E00968890362
:103AF000E9E709688901E6E7C905E4E7FEF7DCFFC5
:103B0000A0EB090141F28830814202D90320BDE8CF
:103B1000F09F6168DAF8000000F03800B0EBC10FE8
:103B2000ECD1207880070AD5E068296801F00F0100
:103B3000884204D2296821F00F0101432960D8F896
:103B40000010404601F00F01B9420BD9016821F085
:103B50000F0139430160006800F00F00B84201D046
:103B60000120D4E7207840070AD52069296801F0B0
:103B70007001884204D2296821F070010143296054
:103B8000207800070AD56069316801F07001884229
:103B900004D2316821F07001014331602078C00601
:103BA0000AD5A069316801F4E061884204D2316825
:103BB00021F4E06101433160207880060CD5E16991
:103BC0005846DBF8002002F07002914204D20268ED
:103BD00022F070020A43026000F080F82968094A66
:103BE000C1F30321515C01F01F01C8400649086080
:103BF0000020BDE8F05FFEF799BF000000200052F2
:103C00001844025894A000085400002070B5144CC9
:103C10003F220260124A24680832131D114D04F03D
:103C20000704446016681C1D06F4706686601668FA
:103C300006F00F06C660126802F0700202611A6890
:103C400002F0700242611A6802F4E0628261226846
:103C500002F07002C261286800F00F00086070BDB9
:103C6000104402580020005210B5FFF7E7F8064A4A
:103C700006491268064B02F00F029A5C02F01F021E
:103C8000D040086010BD00001844025858000020C1
:103C900094A0000810B5FFF7E7FF05490968054A39
:103CA000C1F30211515C01F01F01C84010BD0000BA
:103CB0001C44025894A0000810B5FFF7D5FF054931
:103CC0000968054AC1F30221515C01F01F01C84097
:103CD00010BD00001C44025894A00008454970B56E
:103CE00045480968434B103B11F0380208D00111D8
:103CF000082A03D0102A0BD0182A0BD0084670BD12
:103D000019688906FBD51968C1F3C101C84070BDA7
:103D10003A4870BD3749374D18310C1D24350A68B3
:103D2000096826682D6802F0030406F00102C1F359
:103D30000511C5F3CC0515FB02F200EE102AB8EE12
:103D4000400AE9B32F4ADFED2E0AB7EE001A6CB134
:103D5000DFED2D1A012C01D0022C43D002EE101AF7
:103D60001068F8EE422A81EEA22A1EE01C68A40622
:103D700011D51B6801EE901A1168C3F3C103F8EE68
:103D8000612AD84001EE900AC1F30800F8EE611AEA
:103D900081EEA22A0BE001EE901ADFED1C2A00BF93
:103DA000F8EE611A106882EEA12AC0F3080001EE55
:103DB000900AF8EE611A40EE201A31EE810A00E016
:103DC00015E022EE000A1068C0F34620401C00EE09
:103DD000900AF8EE600A80EE201ABCEEC10A10EEDE
:103DE000100A70BD01EE901ADFED092AD8E7002015
:103DF00070BD0000104402580090D00300127A00F9
:103E000000000039304402580024744A0024744CE5
:103E10000024F44A2DE9F05F04007DD0FF4F2078A4
:103E2000FE4D1837DFF8F493103DC00748D0D9F89D
:103E30000000396800F03800102815D0182803D188
:103E400001F0030002280FD06068B0F5803F12D067
:103E500010B1B0F5A02F18D0286820F48030286069
:103E6000286820F4802009E02868800328D560684D
:103E70000028D2D024E0286840F4803028606068B0
:103E800088B1FEF719FE064609E0286840F4802054
:103E90002860F0E7FEF710FE801B64286FD82868C2
:103EA0008003F7D50CE0FEF707FE064605E000BFED
:103EB000FEF702FE801B6428F0D828688003F7D440
:103EC000207841F20308D54E0C3E800761D5D9F821
:103ED0000000396810F038000ED0182801D188078A
:103EE0000AD0E06880B3296821F0190101432960F4
:103EF000FEF7E2FD82462FE02868400702D5E06821
:103F000000288AD0E168286820F01900084328605A
:103F1000FEF7D2FD824607E0D1E000BFFEF7CCFD00
:103F2000A0EB0A000228B9D828684007F6D500BFE0
:103F3000FEF7BCFD404513D82069316821F47C317F
:103F400041EA0030306024E011E000BFFEF7B4FD2C
:103F5000A0EB0A000228A1D828684007F6D5E7E7B9
:103F6000207C316821F0FE4141EA0060EAE72868E0
:103F700020F001002860FEF79FFD824606E0FFE08A
:103F8000FEF79AFDA0EB0A00022887D828684007B0
:103F9000F6D42078C00657D5D9F80000DFF87CB2F7
:103FA000396800F03800ABF1040B082810D018284D
:103FB00003D101F0030001280AD0E0690028286835
:103FC00032D040F080002860FEF776FD824623E084
:103FD0002868C00523D5E069802870D11FE000BFA4
:103FE00094F82000316821F0F84141EA80603060A7
:103FF0002AE000BF94F82010DBF8002022F07C5269
:1040000042EA0161CBF800101EE000BFFEF754FD4C
:10401000A0EB0A00022886D82868C005F6D5FEF76E
:1040200045FD4045E6D8DBE720F080002860FEF73C
:1040300043FD064605E000BFFEF73EFD801B02285B
:1040400089D82868C005F7D42078000729D5734897
:104050006169643000298046016811D041F0010196
:104060000160FEF729FD064605E000BFFEF724FDCE
:10407000801B022889D8D8F800008007F6D510E008
:1040800021F001010160FEF717FD064605E000BFC3
:10409000FEF712FD801B022872D8D8F800008007B6
:1040A000F6D42078800623D5A0690028286810D08F
:1040B00040F480502860FEF7FFFC064605E0E6E08D
:1040C000FEF7FAFC801B02285AD828688004F7D52E
:1040D0000EE020F480502860FEF7EEFC064604E077
:1040E000FEF7EAFC801B02284AD828688004F7D42F
:1040F000207840074FD5DFF82881D8F8001041F428
:104100008071C8F80010FEF7D7FC064605E000BF36
:10411000FEF7D2FC801B642832D8D8F80000C00516
:10412000F6D53E4EA068603601280AD008B10528B1
:1041300013D0306820F001003060306820F00400B7
:1041400002E0306840F001003060A06841F2883A37
:1041500090B1FEF7B1FC80460AE0306840F0040000
:104160003060EEE7FEF7A8FCA0EB0801514507D848
:1041700030688007F6D50EE0FEF79EFC804607E02B
:1041800084E000BFFEF798FCA0EB080151457DD804
:1041900030688007F6D4606AF0B3D9F80010C1F334
:1041A000C201032973D00228286820F0807028609B
:1041B00003D0FEF781FC044680E0FEF77DFC064656
:1041C00005E000BFFEF778FC801B022873D8286842
:1041D0008001F7D4E26A40F2F331386854F8283F9E
:1041E000884340EA021018433860217B4FF4FE0CEC
:1041F00022894FF0FE47208A4902084B521E267D35
:10420000A1F5007189B2401EC2F3080220331143A8
:10421000761E0CEA004005E053E00000104402580E
:1042200000480258014307EA0662181F114319604B
:104230001A1D016821F00101016011684FF6F8763E
:10424000236AB14341EAC30111600168A26921F008
:104250000C01114301600168E26921F00201114380
:104260000160016841F480310160016841F400316E
:104270000160016841F480210160016841F00101A1
:104280000160286840F08070286001E013E01AE0C7
:10429000FEF712FC044604E0FEF70EFC001B0228A9
:1042A00009D828688001F7D50BE000BFFEF704FCB1
:1042B000001B022802D90320BDE8F09F2868800176
:1042C000F4D40020F8E70120F6E770477047704704
:1042D0002DE9F04390F83C20012A42D0012280F8D9
:1042E0003C2051F80C4BDFF880804FF0000991E83A
:1042F000680051E9022723F44073B1F80CC03B4336
:10430000CF6923F480631343026823F400632343DB
:1043100023F4805343EA050323F4005343EA0603DE
:1043200023F4804343EA07030C3923F47023424506
:1043300043EA0C4302D00D4CA2420CD18D8C23F4E5
:104340007006D1E9073446EA055121F0807119431E
:1043500021F000732343536480F83C900020BDE8B3
:10436000F0830220FBE70000000001400004014050
:1043700010B5040003D094F83D0010B107E001200F
:1043800010BD002084F83C00204600F00DF802200B
:1043900084F83D002068211D01F010F8012084F808
:1043A0003D00002010BD000008B500680B498842A0
:1043B00012D10B48016841F400310160006800220D
:1043C000052100F4003000907520FEF709FCBDE8DF
:1043D00008407520FEF7F6BB08BD00000044014010
:1043E000F04402580168094ACB6843F00103CB60EE
:1043F000016888681040062806D0B0F5803F03D0D9
:10440000086840F0010008600020704707000100C4
:10441000704770B50446006800250169C9438907E3
:1044200015D4C168C943890711D4EA1E026101216C
:104430002177206880698007204602D0FFF7E8FFD7
:1044400004E000F0E0F8204600F0FAF82577206854
:104450000169C943490717D4C168C943490713D43F
:1044600002216FF00402026121772068806910F454
:10447000407F204602D0FFF7CBFF04E000F0C3F8F6
:10448000204600F0DDF8257720680169C943090757
:1044900016D4C168C943090712D404216FF0080279
:1044A000026121772068C0698007204602D0FFF7AB
:1044B000AFFF04E000F0A7F8204600F0C1F8257730
:1044C00020680169C943C90617D4C168C943C90630
:1044D00013D408216FF01002026121772068C069AF
:1044E00010F4407F204602D0FFF792FF04E000F076
:1044F0008AF8204600F0A4F8257720680169C943AE
:10450000C90708D1C168C943C90704D1891E01611F
:10451000204600F097F820680169C943090609D4CC
:10452000C168C943090605D46FF0800101612046C6
:10453000FFF7CCFE20680169C943C90509D4C168E9
:10454000C943090605D46FF4807101612046FFF765
:10455000BCFE20680169C943490609D4C168C94342
:10456000490605D46FF040010161204600F074F85F
:1045700020680169C94389060BD4C168C94389060B
:1045800007D46FF0200101612046BDE87040FFF7BD
:104590009EBE70BD70B5044690F83C0001280ED058
:1045A000012584F83C50022084F83D000C2A19D0E3
:1045B00007DC5AB1042A0DD0082A1ED10EE00220D1
:1045C00070BD102A12D0142A17D113E0206800F011
:1045D00057FF12E0206800F0A7FF0EE0206800F00F
:1045E000EFFF0AE0206801F031F806E0206801F0F2
:1045F00063F802E0206801F095F8002084F83D504F
:1046000084F83C0070BD704710B5040003D094F8E6
:104610003D0010B107E0012010BD002084F83C00EF
:10462000204600F00CF8022084F83D002068211D8F
:1046300000F0C4FE012084F83D00002010BD70474A
:104640007047000000680349884201D1FEF73ABA7A
:104650007047000000480140704730B590F87C106A
:10466000012918D0012280F87C202421C0F8801074
:104670000022202450F8601B0B680D6823F00053C3
:1046800025F001050D60426050F8601C0B6004626B
:104690000277104630BD022030BD704770B5044629
:1046A00090F87C0001281DD0012284F87C20242071
:1046B000C4F8800020680568026822F001020260E8
:1046C0002068826822F060620A438260204601F01E
:1046D0005FF82268202100201560C4F8801084F85B
:1046E0007C0070BD022070BD70B5044690F87C005F
:1046F00001281DD0012284F87C202420C4F88000E9
:1047000020680568026822F0010202602068826861
:1047100022F060420A438260204601F039F82268A4
:10472000202100201560C4F8801084F87C0070BD42
:10473000022070BD70477047704700002DE9F041BE
:10474000036804460025D8691A68996810F00F0FAD
:1047500069D05F4E02F490770E4037437DD0C70793
:1047600009D0D70507D501271F62D4F8883043F058
:104770000103C4F8883083070AD5CB0708D027681F
:1047800002233B62D4F8883043F00403C4F8883035
:1047900043070AD5CB0708D0276804233B62D4F827
:1047A000883043F00203C4F8883003070CD502F0C8
:1047B0002003334308D0266808233362D4F88830B6
:1047C00043F00803C4F88830D4F88830002B3CD07C
:1047D000800609D502F0200001F08051084303D083
:1047E000E16E09B1204688472168D4F888008968BD
:1047F000490601D400072AD5204601F0DBF82068DD
:10480000816849061ED5816821F040018160A06F52
:10481000C0B130490165A06FFDF750F8002814D0F1
:10482000A06F016D0AE0860617D502F0200601F0A0
:1048300080573E4311D0E16E24E02046BDE8F041B0
:1048400008470AE02046FFF777FFBDE8F0812046E1
:10485000FFF772FFC4F88850F7E7C60209D54E0289
:1048600007D54FF4801018622046BDE8F041FFF7ED
:1048700062BF060609D502F0800601F400010E436E
:1048800003D0216F0029D8D1DFE741060DD55106AD
:104890000BD51A682021204622F040021A60C4F885
:1048A0008010256700F0E2F9CFE7010206D551003C
:1048B00004D52046BDE8F041FFF73CBFC001C4D598
:1048C000002AC2DA2046BDE8F041FFF7E6BE00004C
:1048D000010000101B59000810B5040003D0D4F8E3
:1048E000800010B107E0012010BD002084F87C009A
:1048F000204600F027F82420C4F8800020680168D2
:1049000021F001010160204601F07AF90128EBD085
:10491000A06A10B1204600F06DFF2068416821F4C4
:10492000904141602068816821F02A0181602068FF
:10493000016841F0010101602046BDE8104000F02F
:10494000BDBF00002DE9F04786B006461421684639
:10495000FBF768FD4C4A002431680225494840278E
:1049600091424FF0040A4FF480694FF0070842D19A
:10497000444910310A6842F010020A60096801F0E7
:1049800010010591016841F0020101600068A9036E
:104990000091694600F00200CDE901540394CDE98D
:1049A00004A0DFF8E8A05046FDF77CFF00976946B9
:1049B000CDE90154CDE903485046FDF773FF344D6E
:1049C0002A2234492846C5E90274C5E90494AC6139
:1049D000EC612C626C62C5E90012FDF7CDFB08B1F9
:1049E000FCF799FE756700220521AE632520FEF7CE
:1049F000F7F8252040E0284A91423FD1214908316B
:104A00000A6842F480220A60096801F48021059155
:104A1000016841F00801016000684FF440710091A5
:104A2000694600F00800CDE901540394CDE9048003
:104A30001A48FDF737FF164D2E21164A7835183AD9
:104A40002846C5E90021C5E90274C5E90494AC61B2
:104A50000322EC61C5E9084AC5E90A242C63FDF785
:104A60008BFB08B1FCF757FE756700220521AE638A
:104A70002720FEF7B5F82720FEF7A4F806B0BDE81A
:104A8000F0870000E0440258001001400004025882
:104A9000D00200202800024000480040000C0258CC
:104AA00070B5D0F88430202B6CD1B9B1B2B190F888
:104AB0007C30012B66D08468012580F87C5000236F
:104AC00081652E03C366B442A0F85C20A0F85E2086
:104AD0004FF0FF0107D1046914B11DE0012070BD42
:104AE00040F2FF1118E04FF07F059CB1B4F1805FF8
:104AF00015D0A0F860302221C0F88830C0F88410AA
:104B000001688C6844F001048C60416EB1F1005F73
:104B10000CD025E0046934B9A0F86010EBE7016916
:104B200009B13F21F8E7A0F86050E4E7B0F8681059
:104B3000914215D88168B14201D1016971B1124920
:104B4000C16680F87C3001680A6842F480720A60AD
:104B50000068816841F0805181600FE00B49EFE708
:104B60008168B14201D1016951B10949C16680F83A
:104B70007C300068016841F490710160002070BDD4
:104B80000449F3E7022070BD5D5B0008595A000834
:104B9000FD5A0008F959000808B50068094988421B
:104BA0000FD109486946006805F00CF80098002804
:104BB00007D006494FF080500860BFF34F8FBFF316
:104BC0006F8F08BD001001402400002004ED00E0BC
:104BD00070B50446D0F8800020283FD181B37AB365
:104BE00094F87C00012839D0A4F85420A4F8562069
:104BF0000025606F01232165212184F87C30C4F8F1
:104C00008850C4F88010E8B115491346C163616F3C
:104C100014480864616F1448C864606F05652068B3
:104C2000666F00F12802216D3046FDF70FFC48B198
:104C30001021C4F88810202084F87C50C4F880002B
:104C4000012070BD21684020086284F87C502068F3
:104C5000816841F080018160002070BD022070BD3C
:104C60007D590008AB5900082F590008704770475C
:104C7000012202489103FDF713FFFEE700040258EA
:104C80000D4808B5016841F001010160006800228B
:104C9000052100F0010000900B20FDF7A1FF0B2083
:104CA000FDF790FF002205210C20FDF799FFBDE8DC
:104CB00008400C20FDF786BFD844025810B594B0C8
:104CC000164914226846FBF794FB0021684602F05F
:104CD00051FD134C142211491431206005A8FBF733
:104CE00088FB002105A802F045FD0C4914226060F4
:104CF0000AA82831FBF77DFB00210AA802F03AFD43
:104D000006491422A0600FA83C31FBF772FB00217A
:104D10000FA802F02FFDE06014B010BD44A0000801
:104D2000200000202DE9F04186B014216846FBF7F1
:104D300079FB3348016841F004010160016801F02A
:104D400004010591016841F080010160016801F0F2
:104D500080010591016841F002010160016801F0E4
:104D600002010591016841F008010160016801F04C
:104D700008010591016841F040010160016801F0FE
:104D800040010591016841F00101016000684FF4A4
:104D900081461C4F002200F0010031460590384644
:104DA000FDF77EFEDFF86080002240214046FDF7DF
:104DB00077FE164900244FF400508DE81300144884
:104DC0006946FDF76FFD01250096CDE9015469465E
:104DD00038460394FDF766FD40200090CDE901546C
:104DE000694640460394FDF75DFD80206946CDE9A4
:104DF000000440460294FDF755FD06B0BDE8F08181
:104E0000E044025800040258001802580000111132
:104E10000008025810B592B01C210BA8FBF702FB4A
:104E20002C216846FBF7FEFA1D4800241B49EF229F
:104E3000632380E81600C0E9033444618461FFF70E
:104E400097FA08B1FCF767FC1548FFF7DDFB08B1DE
:104E5000FCF761FC0B9400220C940BA910480D94F4
:104E60000E940F9410941194FFF794FB08B1FCF783
:104E700052FC4FF400500094019469460294CDE92D
:104E800004400748039406940A94FFF721FA002887
:104E900001D0FCF740FC12B010BD000000440140FE
:104EA000780100201848002110B5164C0C224FF450
:104EB000E1330460C0E90131C160C0E904128161DD
:104EC000C161016241628162FFF706FD08B1FCF732
:104ED00022FC0D480021FFF707FC08B1FCF71BFC82
:104EE00009480021FFF7DAFB08B1FCF714FC06487B
:104EF000FFF7B3FB002803D0BDE81040FCF70BBC64
:104F000010BD000000100140B80100201848002129
:104F100010B5164C0C224FF416430460C0E9013161
:104F2000C160C0E904128161C161016241628162B4
:104F3000FFF7D2FC08B1FCF7EEFB0D480021FFF7AC
:104F4000D3FB08B1FCF7E7FB09480021FFF7A6FBFC
:104F500008B1FCF7E0FB0648FFF77FFB002803D011
:104F6000BDE81040FCF7D7BB10BD00000048004072
:104F7000440200200E48002170B502230B4D01228F
:104F8000C0E9033183610924C0E90721C0E909129E
:104F9000C0E90B21C0E90054FDF768FE002803D0EA
:104FA000BDE87040FCF7B7BB70BD000000000840D2
:104FB000C0030020FEE770472DE9F047454D044649
:104FC00089464FF0000A2868C04380070AD0414E46
:104FD000283E306820F080603060FDF76DFD0746A8
:104FE000B04608E00120BDE8F08700BFFDF764FD92
:104FF000C01B022867D8D8F800000001F6D420684A
:1050000029684FF4FE0721F47C313E0241EA00306A
:105010002860207AA389B4F804C040022D4D2D49A0
:105020005B1E227CACF1010C1035091DA0F500704F
:1050300080B2521ECCF3080C07EA034340EA0C008E
:10504000184306EA0262104328600868626920F08B
:10505000C000104308600A68A06922F020020243E1
:105060000A60281D0A6822F010020A6002684FF6E2
:10507000F873E4699A4342EAC40202600868B9F12D
:10508000000F40F010020A6011D00868B9F1010F5A
:1050900011D040F400100860D8F80000444640F0F9
:1050A0008060C8F80000FDF707FD05460DE00868C0
:1050B00040F40020EFE740F48010ECE7FDF7FCFC43
:1050C000401B022801D903208DE720680001F5D597
:1050D000504688E7284402582DE9F047454D0446DC
:1050E00089464FF0000A2868C04380070AD0414E25
:1050F000283E306820F080503060FDF7DDFC074628
:10510000B04608E00120BDE8F08700BFFDF7D4FC01
:10511000C01B022867D8D8F800008000F6D4208889
:1051200029684FF4FE0721F07C713E0241EA0050ED
:105130002860207AA389B4F804C040022D4D2D497F
:105140005B1E227CACF1010C1835091DA0F5007026
:1051500080B2521ECCF3080C07EA034340EA0C006D
:10516000184306EA0262104328600868626920F466
:105170004060104308600A68A06922F4007202438C
:105180000A60281D0A6822F480720A6002684FF6DD
:10519000F873E4699A4342EAC40202600868B9F10C
:1051A000000F40F480720A6011D00868B9F1010F55
:1051B00011D040F080700860D8F80000444640F0FC
:1051C0008050C8F80000FDF777FC05460DE0086840
:1051D00040F48000EFE740F40000ECE7FDF76CFCE2
:1051E000401B022801D903208DE720688000F5D5F7
:1051F000504688E728440258012002F0AFFAFBE746
:10520000502010B580F31188BFF34F8FBFF36F8F1D
:1052100004F052FE18B104494FF08050086000209D
:1052200080F3118810BD000004ED00E070B5CCB033
:105230004C212FA8FBF7F6F8202142A8FBF7F2F843
:10524000BC216846FBF7EEF80220FDF7C7FD2348B6
:1052500000242349026842F44042026002680A685E
:1052600042F001020A60096801F001014A910168F7
:105270008904FCD54FF4A022012102203890CDE909
:105280002F1239AA7823142582E80B000C263E90B1
:10529000CDE93C05CDE93F642FA84194FEF7BAFD66
:1052A000402008230501CDE9453042ABCDE9470553
:1052B00049903F21032283E81600042142A8FEF70B
:1052C00085FB0848A9021E941D9421910090684610
:1052D000FDF720FFFDF7AAFD4CB070BD184802583D
:1052E0002C04005803000400214A30B521491468F9
:1052F0000020204B44F47004146010330A681E4DE3
:1053000042F001020A6018600A681A4B2A400A60DB
:1053100018331C1D251D174A186028322060131DE4
:1053200028601C1D251D10602A1D1860131D20609B
:105330001C1D2860251D10601860206028600A6808
:105340000C4B0E4C22F4802260330A6018602068F7
:105350006FF30F00B0F1005F03D209490120C1F8DB
:1053600008014FF0006002498039086030BD00003C
:1053700088ED00E0004402587FEDF6EA0010005C82
:1053800000800051084810B5084A4FF6FE74D0E975
:105390000013491C43F10003C0E9001310680169C0
:1053A0002140016110BD00001000002078010020A4
:1053B0000148FFF72EB80000C80700202DE9F0478C
:1053C000274B4FF0804A274D02689842264E274FC0
:1053D000274C09D0504507D0A84205D0B04203D091
:1053E000B84201D0A04205D1D1F804C022F0700229
:1053F0004CEA0202DFF87CC0DFF87C809842DFF8DC
:105400007C900FD050450DD0A8420BD0B04209D0AF
:10541000B84207D0A04205D0604503D0404501D036
:10542000484503D1CD6822F440722A434D6922F0E9
:1054300080022A43026098428A68C2620A688262D5
:1054400007D0A04205D0604503D0404501D0484573
:1054500001D10969016301214161BDE8F0870000C4
:10546000000001400004004000080040000C004023
:105470000004014000400140004401400048014058
:105480002DE9F04F026ADFF88880DFF8889022F07B
:105490000102DFF884A0DFF884B0214F0262DFF858
:1054A00084C0066A4268836926F002060D68B84225
:1054B0008C6803EA0C0323F0030344EA060445EA7C
:1054C000030507D0404505D0484503D0504501D0DD
:1054D000584505D1CB6824F00804234323F0040485
:1054E000B84207D0404505D0484503D0504501D0CB
:1054F000584505D122F44076D1E9053233431A43A9
:1055000042608561496841630462BDE8F08F000034
:1055100000040140004001400044014000480140B7
:10552000000001408FFFFEFFF0B5026A1E4E1F4CC7
:1055300022F01002DFF878E00262056A43688269AF
:1055400025F02005D1F808C0A0420F6802EA060243
:1055500022F4407245EA0C1542EA072201D0704558
:1055600006D1CE6825F0800545EA061525F04005F0
:10557000A0420AD0704508D00E4CA04205D00E4C77
:10558000A04202D00D4CA04207D1D1E9054623F438
:10559000406343EA840343EA8603436082614968C7
:1055A00081630562F0BD0000FF8FFFFE0000014037
:1055B0000004014000400140004401400048014017
:1055C000F0B5026A1C4D1D4E22F48072A8420262A0
:1055D000026A4368C76922F40072D1F808C00C68F7
:1055E00027F0730742EA0C2244EA070401D0B042D4
:1055F00006D1CF6822F4006242EA072222F48062D8
:10560000A8420AD0B04208D00D4DA84205D00D4D99
:10561000A84202D00C4DA84207D1D1E9055623F487
:10562000405343EA051343EA06134360C4614968E3
:10563000C1630262F0BD00000000014000040140AF
:1056400000400140004401400048014070B5026A3A
:10565000144B22F4805202629842036A4268C46981
:1056600023F400538E680D6824F4E64443EA0633BD
:1056700044EA05240BD00C4DA84208D00B4DA8429B
:1056800005D00B4DA84202D00A4DA84204D14D6965
:1056900022F4804242EA85124260C4614968016492
:1056A000036270BD00000140000401400040014061
:1056B0000044014000480140F0B5026A22F4803203
:1056C0000262134F056A4268446D25F400350E8965
:1056D000B8420B6824F0700445EA064543EA040327
:1056E0000BD00C4CA04208D00B4CA04205D00B4C68
:1056F000A04202D00A4CA04204D14C6922F480326C
:1057000042EA042242604365496881650562F0BD52
:1057100000000140000401400040014000440140FD
:1057200000480140F0B5026A22F480120262134F71
:10573000046A4268436D24F400140E89B8420D686F
:1057400023F4E04344EA065443EA05230BD00C4D0E
:10575000A84208D00B4DA84205D00B4DA84202D05C
:105760000A4DA84204D14D6922F4003242EA852252
:10577000426043654968C1650462F0BD00000140B4
:105780000004014000400140004401400048014045
:105790003FB514A1D1E9002314A1CDE90023D1E93B
:1057A0000021CDE90221416EB9B1016802AC8A68DD
:1057B0008968C2F34262490F1DF80150615CED0037
:1057C000B5FBF1F1A0F86A101DF80210A25CC90047
:1057D000B1FBF2F1A0F868103FBD0121A0F86A10FA
:1057E000F8E70000010101030701000008040204BA
:1057F0000801010190F82810C90706D00168C36AA2
:105800004A6822F400321A434A6090F82810890747
:1058100006D50168036B4A6822F480321A434A6055
:1058200090F82810490706D50168436B4A6822F4AE
:1058300080221A434A6090F82810090706D50168AB
:10584000836B4A6822F400421A434A6090F8281099
:10585000C90606D50168C36B8A6822F480521A43D0
:105860008A6090F82810890606D50168036C8A685A
:1058700022F400521A438A6090F82810490611D584
:105880000168436C4A6822F480121A434A60416CF2
:10589000B1F5801F06D10168836C4A6822F4C0020A
:1058A0001A434A6090F82810090606D50168C26CB0
:1058B000486820F40020104348607047F8B500267F
:1058C0000446C0F88860FDF7F7F8054620686FF0D9
:1058D0007E470068000708D500222B464FF40011D0
:1058E0002046009700F0E0FF60B92068006840079C
:1058F0000AD500222B464FF480012046009700F085
:10590000D3FF08B10320F8BD2020C4F8800084F83C
:105910007C60C4F884000020F8BD10B5806B0021C5
:10592000A0F85E10A0F85610FEF706FF10BD70B587
:10593000846B00252168D4F88000D4F884608968DD
:10594000090606D5212804D1A4F85650204600F0B7
:1059500045F820688068400606D5222E04D1A4F8B8
:105960005E50204600F026F8D4F8880040F0100081
:10597000C4F888002046FEF7DFFE70BD10B5C1698F
:10598000806BB1F5807F0DD00021A0F85610016822
:105990008A6822F080028A600068016841F0400154
:1059A000016010BDFFF762F910BD10B5806BFFF705
:1059B0005EF910BD30B501682023074D00240A6848
:1059C00022F490720A6001688A682A408A60C0F8EE
:1059D0008430C46630BD0000FEFFFFEF0168202266
:1059E0000B6823F0C0030B6001688B6823F400038D
:1059F0008B60C0F88020704710B5D0F88410B0F8E4
:105A000060202229016804D0886940F0080088617C
:105A100010BD496A836D11401980816D891C8165B3
:105A2000B0F85E10491EA0F85E10B0F85E100029B4
:105A3000EED10168202200230C6824F490740C60DD
:105A400001688C6824F001048C60C0F88420C3666F
:105A5000FFF7A2F810BD00002DE9F0410446D0F890
:105A600084002228B4F8606006D02068816941F083
:105A700008018161BDE8F081B4F8685023E0206836
:105A8000A16D406A30400880A06D801CA065B4F80C
:105A90005E00401EA4F85E00B4F85E0088B920687D
:105AA000202214490023076827F4807707602068C4
:105AB00087680F408760C4F884202046E366FFF7BC
:105AC0006BF86D1EADB2002DD9D1B4F85E00002880
:105AD000D0D0B4F868108142CCD92068816821F018
